:020000020000FC
:02000000E9C154
:10001C001BC1219A00270AB90FEF0BB901E8009315
:10002C00800009E0009381000F9302E00093B00080
:10003C000F910F9302E00093B1000F910F930FE11A
:10004C000093B3000F910F9302E0009370000F9197
:10005C0022240895A0E0B1E02D922D922D922D92A4
:10006C0008950895089508950F930FEF00930401D8
:10007C000F910F9301E0009305010F910F930FEF78
:10008C00009307010F910F930FEF009308010F914D
:10009C000F9300E8009309010F910F930FEF00935A
:1000AC000A010F9108950F93CCE0D1E004E008D041
:1000BC00C85FD21D0A95D9F720920B010F910895B4
:1000CC00288229822A822B822C822D822E820895CC
:1000DC0020910B0134E020FF04C026953A95D9F706
:1000EC00089524E0231B48E0249FACE0B1E0A00D70
:1000FC00B21D02D00AD0F4CF0D931D932D922D92E8
:10010C002D922D922D922D9208952F9300910B01EB
:10011C0011E0222319F0110F2A95E9F7012B009316
:10012C000B012F9108952F9300910B0111E02223C5
:10013C0019F0110F2A95E9F7012300930B012F9168
:10014C000895808386898C8F9295989C9FA2A5A8F0
:10015C00ABAEB1B3B6B9BCBFC1C4C7C9CCCED1D399
:10016C00D5D8DADCDEE0E2E4E6E8EAECEDEFF0F23A
:10017C00F3F5F6F7F8F9FAFBFCFCFDFEFEFFFFFFCA
:10018C00FFFFFFFFFFFFFFFFFEFEFDFCFCFBFAF98C
:10019C00F8F7F6F5F3F2F0EFEDECEAE8E6E4E2E07E
:1001AC00DEDCDAD8D5D3D1CECCC9C7C4C1BFBCB97B
:1001BC00B6B3B1AEABA8A5A29F9C9895928F8C8933
:1001CC008683807C797673706D6A6763605D5A573D
:1001DC0054514E4C494643403E3B383633312E2C1D
:1001EC002A272523211F1D1B1917151312100F0D5C
:1001FC000C0A0908070605040303020101000000AC
:10020C0000000000000000000101020303040506C9
:10021C000708090A0C0D0F1012131517191B1D1FB7
:10022C00212325272A2C2E313336383B3E4043469A
:10023C00494C4E5154575A5D6063676A6D707376C2
:10024C00797C06264A88B8000F930FB70F937F93DB
:10025C00772708D013D0709388007F910F910FBF30
:10026C000F911895009106010A950093060129F447
:10027C000F9308E0009306010F910895CF93DF933D
:10028C000F932F93CCE0D1E004E020910B0120FDE3
:10029C000AD0C85FD21D26950A95C9F72F910F91E8
:1002AC00DF91CF9108950F931F932F933F934F930B
:1002BC00088119812A813B81200F311F2A833B83BE
:1002CC000DD010910401149F112D1695169557D031
:1002DC004F913F912F911F910F9108955F930C8136
:1002EC002D814E81EDE7F1E0E00FF21D099404C081
:1002FC0016C02BC02BC0E4CE10910701112361F066
:10030C001095509106015830B9F5210FA8F5439579
:10031C004E834F3F71F130C04FEF4E832AC0109186
:10032C000801112371F0109550910601583021F5F8
:10033C00210F10F54A954E83509109014517C9F0CC
:10034C001BC0409109014E8314C016C010910A01C4
:10035C00112361F0109550910601583069F4210F6A
:10036C0058F44A954E83442321F006C044274E830B
:10037C0000C003950C8322272D835F910895009173
:10038C000501ECECF1E0E00FF21D099403C00EC086
:10039C0010C012C0EF93FF93EEE4F1E0E30FF21DF7
:1003AC000491019F710DFF91EF91089537FD710F2D
:1003BC000895319F710D08953F9337FD3095330F9C
:1003CC00319F710D3F9108950FEF0DBF08E00EBFE7
:1003DC0020DE69DE49DE3EDE05E712E079DE789448
:0403EC0040DEFECF22
:00000001FF
