:020000020000FC
:02000000D4C169
:10001C0008C1219A00270AB90FEF0BB901E8009328
:10002C00800009E00093810002E00093B00002E040
:10003C000093B1000FE10093B30002E00093700055
:10004C0022240895A0E0B1E02D922D922D922D92B4
:10005C0008950895089508950FEF0093040101E0A9
:10006C00009305010FEF009307010FEF00930801B8
:10007C0000E00093090100E800930A0101D0089503
:10008C000F93CCE0D1E004E008D0C85FD21D0A95F4
:10009C00D9F720920B010F910895288229822A8288
:1000AC002B822C822D822E82089520910B0134E01C
:1000BC0020FF04C026953A95D9F7089524E0231B18
:1000CC0048E0249FACE0B1E0A00DB21D02D00AD0F4
:1000DC00F4CF0D931D932D922D922D922D922D9246
:1000EC002D9208952F9300910B0111E0222319F00A
:1000FC00110F2A95E9F7012B00930B012F9108950D
:10010C002F9300910B0111E0222319F0110F2A9566
:10011C00E9F7012300930B012F91089580838689C1
:10012C008C8F9295989C9FA2A5A8ABAEB1B3B6B993
:10013C00BCBFC1C4C7C9CCCED1D3D5D8DADCDEE0C4
:10014C00E2E4E6E8EAECEDEFF0F2F3F5F6F7F8F9B5
:10015C00FAFBFCFCFDFEFEFFFFFFFFFFFFFFFFFFB6
:10016C00FFFFFEFEFDFCFCFBFAF9F8F7F6F5F3F2E7
:10017C00F0EFEDECEAE8E6E4E2E0DEDCDAD8D5D349
:10018C00D1CECCC9C7C4C1BFBCB9B6B3B1AEABA894
:10019C00A5A29F9C9895928F8C898683807C79767A
:1001AC0073706D6A6763605D5A5754514E4C494683
:1001BC0043403E3B383633312E2C2A272523211F32
:1001CC001D1B1917151312100F0D0C0A0908070621
:1001DC000504030302010100000000000000000000
:1001EC00000001010203030405060708090A0C0DAF
:1001FC000F1012131517191B1D1F212325272A2C2D
:10020C002E313336383B3E404346494C4E515457C1
:10021C005A5D6063676A6D707376797C06264A88CE
:10022C00B8000F930FB70F937F93772708D011D097
:10023C00709388007F910F910FBF0F9118950091CB
:10024C0006010A950093060119F408E000930601D3
:10025C000895CF93DF930F932F93CCE0D1E004E07C
:10026C0020910B0120FD0AD0C85FD21D26950A955E
:10027C00C9F72F910F91DF91CF9108950F931F9391
:10028C002F933F934F93088119812A813B81200F33
:10029C00311F2A833B830DD010910401149F112D23
:1002AC001695169557D04F913F912F911F910F9105
:1002BC0008955F930C812D814E81E8E6F1E0E00F0B
:1002CC00F21D099404C016C02BC02BC0E6CE1091B1
:1002DC000701112361F01095509106015830B9F5C2
:1002EC00210FA8F543954E834F3F71F130C04FEF6E
:1002FC004E832AC010910801112371F01095509172
:10030C000601583021F5210F10F54A954E83509176
:10031C0009014517C9F01BC0409109014E8314C057
:10032C0016C010910A01112361F01095509106012D
:10033C00583069F4210F58F44A954E83442321F028
:10034C0006C044274E8300C003950C8322272D83BF
:10035C005F91089500910501E7EBF1E0E00FF21DCC
:10036C00099403C00EC010C012C0EF93FF93E8E2D3
:10037C00F1E0E30FF21D0491019F710DFF91EF91DC
:10038C00089537FD710F0895319F710D08953F93B6
:10039C0037FD3095330F319F710D3F9108950FEF5D
:1003AC000DBF08E00EBF35DE6BDE56DE4BDE05E71B
:0A03BC0012E07BDE78944DDEFECFE8
:00000001FF
