:020000020000FC
:0200000059C2E3
:10001C001BC001E80093800009E0009381000F935E
:10002C0002E00093B0000F910F9302E00093B10037
:10003C000F910F930FE10093B3000F910F9302E018
:10004C00009370000F9108950F930FB70F9334D155
:10005C000F930FEF00932D010F910F910FBF0F9185
:10006C001895219A04E00AB908EF0BB922240895D7
:10007C000F930FEF009300010F910F9302E0009389
:10008C0001010F910F9304E6009303010F910F935D
:10009C0004E6009304010F910F9300E8009305010F
:1000AC000F910F9308EC009306010F9108950F9395
:1000BC00CF93DF93C8E0D1E002E00AD0C75FD21D36
:1000CC000A95D9F720920701DF91CF910F910895EE
:1000DC00288229822A822B822C822D822E822F82A8
:1000EC00288608952091070132E020FF23C0269531
:1000FC003A95D9F7CF93DF93C8E0D1E0C85FD21D12
:10010C0033274427552722E05881541720F0452FD8
:10011C0052E0521B352FC75FD21D2A95A9F749E033
:10012C00349FA8E0B1E0A00DB21D10D019D0DF9122
:10013C00CF91089522E0231B49E0249FA8E0B1E071
:10014C00A00DB21D03D00CD018D008950D931D93A3
:10015C002D922D922D922D922D922D922D920895BD
:10016C00C8E0D1E0C85FD21D22E008810395088762
:10017C00C75FD21D2A95C9F708952F9300910701E7
:10018C0011E0222319F0110F2A95E9F7012B0093A6
:10019C0007012F9108952F930091070111E022235D
:1001AC0019F0110F2A95E9F70123009307012F91FC
:1001BC000895808386898C8F9295989C9FA2A5A880
:1001CC00ABAEB1B3B6B9BCBFC1C4C7C9CCCED1D329
:1001DC00D5D8DADCDEE0E2E4E6E8EAECEDEFF0F2CA
:1001EC00F3F5F6F7F8F9FAFBFCFCFDFEFEFFFFFF5A
:1001FC00FFFFFFFFFFFFFFFFFEFEFDFCFCFBFAF91C
:10020C00F8F7F6F5F3F2F0EFEDECEAE8E6E4E2E00D
:10021C00DEDCDAD8D5D3D1CECCC9C7C4C1BFBCB90A
:10022C00B6B3B1AEABA8A5A29F9C9895928F8C89C2
:10023C008683807C797673706D6A6763605D5A57CC
:10024C0054514E4C494643403E3B383633312E2CAC
:10025C002A272523211F1D1B1917151312100F0DEB
:10026C000C0A09080706050403030201010000003B
:10027C000000000000000000010102030304050659
:10028C000708090A0C0D0F1012131517191B1D1F47
:10029C00212325272A2C2E313336383B3E4043462A
:1002AC00494C4E5154575A5D6063676A6D70737652
:1002BC00797C06264A88B8007F93772705D010D022
:1002CC00709388007F910895009102010A95009324
:1002DC00020129F40F9308E0009302010F91089595
:1002EC00CF93DF930F932F93C8E0D1E002E02091DE
:1002FC00070120FD0AD0C75FD21D26950A95C9F7C4
:10030C002F910F91DF91CF9108950F931F932F93FE
:10031C003F934F935F930FD017D010910001149F10
:10032C00112D1695169562D05F914F913F912F919B
:10033C001F910F910895088119812A813B81200F0B
:10034C00311F2A833B8308950C812D814E8118E047
:10035C0050910201511348C0033090F550912C017B
:10036C00552339F0003051F00130B9F0023039F139
:10037C003BC003E00C8322272D8322C01091030184
:10038C00112341F01095210F78F543954E834F3F83
:10039C0041F12AC04FEF4E8324C010910401112368
:1003AC0051F01095210F00F54A954E83509105019F
:1003BC004517B9F019C0409105014E8312C014C005
:1003CC0010910601112349F01095210F68F44A95FC
:1003DC004E83442349F46BDE07C044274E8367DE0B
:1003EC0003C003950C8322272D830895EF93FF936D
:1003FC00E5E0F2E000910101E00FF21D099403C069
:10040C000EC010C012C0EF93FF93EEEBF1E0E30FC0
:10041C00F21D0491019F710DFF91EF910EC037FDFC
:10042C00710F0BC0319F710D08C03F9337FD309594
:10043C00330F319F710D3F9100C0FF91EF910895E3
:10044C0020922C0120922D0120922E0108950F93C1
:10045C0000912C01002309F019F44F9B04C010C02B
:10046C004F9901C00DC000912E01039500932E01F0
:10047C000F3F51F400912C01009500932C0108D0F2
:10048C00002700932E0100C02092FF000F910895C9
:10049C0000912C01002309F408950DEC11E022DEEB
:1004AC0004EB12E01FDE08950FEF0DBF08E00EBF46
:1004BC0006D0AFDDFCDDDCDDC3DF789407C0219A0C
:1004CC0004E00AB908EF0BB92224089500912D011C
:1004DC000211BDDF01D0FACF00912C01002311F0E5
:0804EC005A9A08955A980895E8
:00000001FF
